:100000000C9466010C94FF020C941F030C945C0486
:100010000C94FA030C9483010C9483010C948301D7
:100020000C9483010C9483010C941C060C948301A2
:100030000C9483010C94C30C0C9483010C948301E5
:100040000C9483010C9483010C9483010C941F0C79
:100050000C948301726F74617465416865616457C3
:10006000616C6C202D2057696E6B656C2076657213
:100070006B6C65696E65726E200A00726F746174D4
:1000800065416865616457616C6C202D20566F7204
:1000900077E472747366616872656E200A00726F2D
:1000A00074617465416865616457616C6C202D20D2
:1000B00044726568656E200A00726F7461746541F0
:1000C0006865616457616C6C202D205AFC72756301
:1000D0006B7365747A656E200A0042756D70657287
:1000E000204C656674200A0042756D706572204C64
:1000F000656674200A0042756D706572204C6566F5
:100100007420616E64205269676874200A00546824
:100110006520526F626F74206E6565647320746F22
:10012000206265207265736574746564206E6F77F4
:100130002E0A0A00596F75206E65656420746F2061
:10014000636865636B204D6F746F722061737365B4
:100150006D626C7920286F7220796F757220736FD1
:10016000667477617265292E0A0A000A0A28732EBE
:10017000207461736B5F6D6F746F72436F6E747216
:100180006F6C28292066756E6374696F6E20696EC6
:10019000205250364C696221290A000A0A2323237F
:1001A000204D4F544F52204F5645524355525245C1
:1001B0004E54202323230A00596F75206E65656411
:1001C00020746F20636865636B20456E636F6465A0
:1001D000722F4D6F746F7220617373656D626C79ED
:1001E00020286F7220796F757220736F6674776143
:1001F0007265292E0A0A00210A0A28732E207461CA
:10020000736B5F6D6F746F72436F6E74726F6C2877
:10021000292066756E6374696F6E20696E20525076
:10022000364C696221290A005249474854004C451E
:100230004654004166666563746564206368616E58
:100240006E656C3A000A23232320454E434F4445F4
:100250005220284F52204D4F544F5229204D414C8F
:1002600046554E4354494F4E21202323230A002351
:100270002323232320414C4C204F504552415449C5
:100280004F4E532053544F5050454420544F20500C
:10029000524556454E5420414E592044414D414708
:1002A00045212023232323230A000A0A232323236F
:1002B0002320454D455247454E43592053485554F8
:1002C000444F574E2023232323230A0011241FBE0B
:1002D000CFE5D8E0DEBFCDBF10E0A0E6B0E0ECE9AE
:1002E000FCE102C005900D92A238B107D9F711E0E8
:1002F000A2E8B0E001C01D92A337B107E1F70E9468
:1003000085010C944C0E0C9400000E9404080E947D
:10031000010682EE91E00E946C0288E268E20E948F
:1003200045030E9471020E94BF080E94A602F9CFF5
:100330009091A8008091A300981709F042C089EB22
:1003400090E00E94AA0C88E261E043E258E021E0DC
:100350000E947E0B8EE990E00E94AA0C4091A600BC
:1003600088E26091A80050E021E00E94FB0A8BE740
:1003700090E00E94AA0C88E260E043E258E021E0AD
:100380000E947E0B84E590E00E94AA0C8091A6005A
:1003900085508093A60080E690E00E94A00C80919A
:1003A000A4009091A50001969093A5008093A400CD
:1003B00001976AE00E94520D87E790E00E94A00C2E
:1003C000B7CF08950E9498030E945102882349F0F4
:1003D0000E945E02882329F086EF90E00E94AA0C1A
:1003E0001BC00E945102882351F00E945E028823A4
:1003F00031F488EE90E00E94AA0C82E009C00E94CD
:100400005E02882349F08AED90E00E94AA0C83E006
:100410008093A8008093A30084E18093A6000E94AB
:10042000980108958091BD00843010F01092BD00B5
:10043000089584E08093BD00089587B38C7787BBCF
:1004400088B38C7788BB8091A70083FF02C0BF9AD6
:10045000C79A84FF02C0B99AC19A85FF02C0B89AB0
:10046000C09A84B38F7884BB85B38F7885BB94B3EF
:100470002091A700822F82958077982B94BB95B30B
:10048000892B85BB8091BD00882319F4822F21110F
:1004900081E08093BD0008958093A7000E941D0213
:1004A0000895C098B898000096B38091A70085FF82
:1004B00002C0B89AC09A892F81700895AE98A69804
:1004C000000093B38091A70082FF02C0A69AAE9A63
:1004D000892F8074089508959093810080938000FF
:1004E00008951F938091F5008333C8F00E94510254
:1004F000182F0E945E02982F8091A900811721F485
:1005000080910601891749F01093A9009093060184
:10051000E0918000F091810009951092F5001F9103
:100520000895369B03C020E030E009C0806487B99D
:1005300086ED86B93699FECF349A24B135B1C9011A
:100540000895806487B986ED86B90895369956C0B6
:1005500020919300233039F1243028F4213099F090
:100560002230C8F408C0253089F1253020F126302A
:1005700009F041C033C084B195B190930A018093D2
:10058000090186E41FC084B195B190930F01809357
:100590000E0185E417C084B195B19093000180935A
:1005A000FF0083E40FC084B195B19093C90080939C
:1005B000C80082E407C084B195B19093EF008093A6
:1005C000EE0080E487B986ED86B915C084B195B197
:1005D0009093FD008093FC0081E4F4CF84B195B149
:1005E0009093C7008093C60087E487B986ED86B9EB
:1005F0001092930008952F5F2093930008951F9207
:100600000F920FB60F9211248F939F938091040144
:1006100090910501019690930501809304018091CA
:10062000FA009091FB0001969093FB008093FA00F2
:100630009F918F910F900FBE0F901F9018951F9252
:100640000F920FB60F9211248F939F938091F60013
:100650009091F70001969093F7008093F6008091B7
:10066000D0009091D10001969093D1008093D0005A
:100670009F918F910F900FBE0F901F901895089526
:1006800090937F0080937E000895893C08F088EC69
:100690008093AE001092AF00693C08F068EC609364
:1006A000AC001092AD000895282F80938600109220
:1006B00082008150823018F481E0809382002130E2
:1006C00021F080E090E0233011F481E090E080930D
:1006D000830008959C011092820097FF03C081E07F
:1006E000809382001092830077FF03C081E08093A3
:1006F00083001216130614F4822F03C0822F8195F3
:100700006195893C08F088EC8093AE001092AF00B0
:10071000693C08F068EC6093AC001092AD0008955D
:1007200090E08091A200837009F491E0892F0895F0
:100730001092AF001092AE001092AD001092AC007B
:100740001092B9001092B8001092F4001092F300C9
:100750008091A2008C7F8093A20080930801E09199
:100760007E00F0917F0009950895633D08F062EDE9
:100770006093CE001092CF00833D08F082ED80930D
:10078000BE001092BF00089580938400609385009E
:100790008093820060938300882311F0AA9A01C09D
:1007A000AA98662311F0AB9A0895AB980895982FF4
:1007B00003C089B7806889BF8091B3008823C9F7D7
:1007C000892F90E08F73907026E0880F991F2A95EB
:1007D000E1F7262F30E02F733070822B932B90633C
:1007E0009093D3008093D2008091B2008064809374
:1007F000B20008951F920F920FB60F9211242F93FB
:100800008F939F93809179008230B0F52091920070
:100810002223C1F02C3338F48091EC009091ED004C
:1008200096FF07C008C08091EC009091ED0096FF04
:1008300002C0979803C082B3805882BB2150209396
:10084000920032C08091B3008823A1F097988091E4
:10085000EC009091ED00880F991F9093ED0080932C
:10086000EC0088E7809392008091B30081508093E0
:10087000B3001AC0979818C08091B700882391F0F0
:100880008091B20080FD05C088B390E4892788BBC1
:1008900003C085B3805885BB8091B7008150809399
:1008A000B70002C0C69AAF9A9F918F912F910F9077
:1008B0000FBE0F901F9018951F920F920FB60F92B8
:1008C00011248F9380917900833011F0863069F480
:1008D0008091B20084FD09C085FF07C0B29905C0B0
:1008E000809107018F5F8093070186B38091B200EA
:1008F0008D7F8093B2008F910F900FBE0F901F904D
:100900001895089590937B0080937A000895089538
:1009100090937D0080937C0008958091CA0090910F
:10092000CB00029708F43BC19091B20094FD16C130
:1009300080917900823009F467C0833030F48823D5
:1009400071F0813009F010C111C0853009F4ACC0DC
:10095000863009F4C1C0833009F006C16DC089B783
:100960008F7789BF9798C69AAF9AFEC08091B300DF
:10097000882341F596FF14C08091D2009091D30056
:100980009093ED008093EC008EE08093B300809113
:10099000B2008F7B8093B20089B7806889BF06C0A0
:1009A00089B78F7789BF9798C69AAF9A809191003F
:1009B0008F5F809391008150843138F082E0809382
:1009C000790003C089B7806889BF8091B20083FF36
:1009D000CBC0E0917A00F0917B0080910B01909167
:1009E0000C01099580910B0190910C019093BB0033
:1009F0008093BA0010920C0110920B018091B2000A
:100A0000877F8093B200B0C089B78F7789BF9798EE
:100A1000C69AAF9A1092B7001092070110929000F8
:100A200010928F008091B2008E7F80628093B2001E
:100A300083E08093910075C08091B700882381F492
:100A4000809191008F5F809391008150833040F0BE
:100A500089B7806889BF88E28093B70010929100BF
:100A60008091E800882321F080910701823020F4F2
:100A700080910701863038F01092070181E0809361
:100A8000E80085E04EC080918F0090919000019623
:100A90009093900080938F0001970E9708F464C0A4
:100AA0001092E80085E04FC089B78F7789BF97988B
:100AB000C69AAF9A1092B700109207011092900058
:100AC00010928F008091B20081628093B20083E027
:100AD0008093910086E025C08091B700882381F43F
:100AE000809191008F5F809391008150833040F01E
:100AF00089B7806889BF88E28093B700109291001F
:100B00008091F100882321F080910701823020F448
:100B100080910701863040F01092070181E08093B8
:100B2000F1008093790020C080918F009091900017
:100B300001969093900080938F0001970E97A0F0FC
:100B40001092F10081E08093790089B78F7789BF97
:100B50009798C69AAF9A1092B70006C0109290006C
:100B600010928F00109291002091E80080918E00E9
:100B7000821731F490918D008091F100981759F00F
:100B800020938E008091F10080938D00E0917C0095
:100B9000F0917D0009951092CB001092CA00089543
:100BA0001092790089B78F7789BF9798C69AAF9AC4
:100BB0001092F1001092E800089589B78F7789BFED
:100BC0009798C69AAF9A1092F1001092E80081E0CF
:100BD0008093790008958E989698BB98C398C6988C
:100BE000AF9808958E9A969ABB98C39808958E9858
:100BF0009698BB9AC39A08958E9A969ABB9AC39A6E
:100C00000895C49A8091BD00843018F483E08093E5
:100C1000BD000895C4988091BD00843060F488239D
:100C200031F420E030E08091A700882311F021E02A
:100C300030E02093BD0008951F920F920FB60F92DF
:100C400011242F933F934F935F936F937F938F93D1
:100C50009F93AF93BF938091A0009091A1000196C4
:100C60009093A1008093A0008091FE008F5F8093FD
:100C7000FE00809101018F5F8093010181508930D6
:100C800008F447C18091D60080FF09C08091D70049
:100C90009091D80001969093D8008093D7008091CE
:100CA000D60081FF09C08091D9009091DA000196A9
:100CB0009093DA008093D9008091D60082FF09C01A
:100CC0008091DB009091DC0001969093DC00809392
:100CD000DB008091D60083FF09C08091DD009091F8
:100CE000DE0001969093DE008093DD008091D600B7
:100CF00084FF09C08091DF009091E00001969093FD
:100D0000E0008093DF008091D60085FF09C08091CC
:100D1000E1009091E20001969093E2008093E1005F
:100D20008091D60086FF09C08091E3009091E40095
:100D300001969093E4008093E3008091D60087FFB2
:100D400009C08091E5009091E60001969093E6003D
:100D50008093E5008091F2008F5F8093F2008150D4
:100D6000893CE8F08091D0009091D10090930301EC
:100D7000809302018091FA009091FB009093C10052
:100D80008093C0001092D1001092D0001092FB000E
:100D90001092FA0081E08093BC001092F200409122
:100DA000BD00433008F052C0423081F58091A70069
:100DB000882301F580918B0090918C009C012F5F1E
:100DC0003F4F30938C0020938B0068EC70E00E94C2
:100DD000D20D892BD9F5215A3F4028F0B998C198F6
:100DE0001092BD0029C087B3842787BB88B38427AE
:100DF00088BB2CC084FD02C0B998C19810928C00A9
:100E000010928B0081E08093BD0020C080918B0008
:100E100090918C002EE2813E920798F0413049F487
:100E20001092BD008091A70084FD06C0B998C198BA
:100E300003C082E08093BD0010928C0010928B0062
:100E400005C0019690938C0080938B008091CA001E
:100E50009091CB00039748F48091CA009091CB0009
:100E600001969093CB008093CA008091EA0087336B
:100E700018F48F5F8093EA008091F500843328F4A2
:100E80008091F5008F5F8093F5008091F0008F5F77
:100E90008093F00081508330D0F18091EB00482F97
:100EA00050E02091CE003091CF004217530759F007
:100EB0004217530714F48F5F01C081508093EB00F9
:100EC0008091EB008ABD80910D01482F50E0209168
:100ED000BE003091BF004217530759F04217530725
:100EE00014F48F5F01C0815080930D0180910D013A
:100EF00088BD80910D01882321F48091EB00882327
:100F000019F082EA8FBD01C01FBC1092F000109250
:100F100001018091B20083FD46C02091870030918D
:100F20008800409189004F5F40938900463190F0DE
:100F300036FD09C035FF07C030930C0120930B012B
:100F400088608093B2008091B2008F7E8093B2005F
:100F500020E030E090918A0086B3892782FF1FC08D
:100F6000909590938A00473040F48091B2008F7E34
:100F70008093B20020E030E005C02115310511F06A
:100F80004F3068F08091B20080618093B20036FDEE
:100F900002C0220F331F92FF21601092890030930C
:100FA000880020938700BF91AF919F918F917F918F
:100FB0006F915F914F913F912F910F900FBE0F90C6
:100FC0001F901895982F1092FE008091FE008917AF
:100FD000E0F308959C0108C01092FE008091FE008D
:100FE0008A30E0F32150304021153105A9F70895EA
:100FF00002C0000001970097E1F70895D49ADC9AA7
:101000000895DC98D49808951BBA18BA15BA81E0EF
:1010100082BB1ABA88E587BB8CE884BB82EF81BBB0
:10102000F894C598BD9A87B397980E94EB0510BCB9
:101030008CE089B91BB886E880BD88E98AB917B801
:1010400086E186B910BE85E085BF80EE8BBF14BEF9
:101050008AE083BF83E68CBF82EA8FBD81E18EBDCB
:1010600082ED90E097BD86BD1ABC18BC80E060E0C0
:101070000E94C40389E085BD8EE683BD82E089BFFE
:101080008091B20081608093B20081E0809379000A
:10109000789408951F93182FF89497980E94EB0561
:1010A0001092BF001092BE001092CF001092CE009E
:1010B0001092B9001092B8001092F4001092F30050
:1010C00010920D011092EB001ABC18BC1FBC0E94BC
:1010D0000A068AEA92E00E94AA0C8FE692E00E9439
:1010E000AA0C812F81508230C0F485E492E00E94E6
:1010F000AA0C83E392E00E94AA0C113019F48EE24C
:1011000092E002C088E292E00E94AA0C87EF91E090
:101110000E94AA0C88EB91E00CC0133061F48BE9BB
:1011200091E00E94AA0C8BE691E00E94AA0C84E355
:1011300091E00E94AA0C8EE091E00E94AA0C16E3B6
:101140001093A7000E941D022AE008C0000001972A
:101150003FEF8F3F9307D1F7215019F080E090E8DF
:10116000F6CF1092A7000E941D022AE005C00000E1
:101170000197E9F7215021F380E090E0F9CF8091C9
:10118000EA00823308F47CC01092EA008091E70004
:10119000882309F041C080910E0190910F01835086
:1011A000934038F48091FF00909100018350934068
:1011B000F0F08091E9008F5F8093E9008AE08093EE
:1011C000E7001092BF001092BE001092CF00109264
:1011D000CE001092B9001092B8001092F400109254
:1011E000F3008091A20084608093A2000895809112
:1011F000A2008B7F8093A2008091B400853628F0F6
:101200001092E9001092B40007C08091E900833089
:1012100018F083E00E944A0880910E0190910F011E
:101220008639910598F48091C0009091C100892B76
:1012300069F48091AE009091AF00892B39F08091D4
:101240000D01873918F081E00E944A088091FF0063
:10125000909100018639910598F480910201909156
:101260000301892B69F48091AC009091AD00892B2A
:1012700039F08091EB00873918F082E00E944A082B
:101280008091BC00882309F49FC18091E7008823E6
:1012900009F095C18091E900882331F08091B40074
:1012A0008F5F8093B40002C01092B4004091A200FE
:1012B00041FF38C020910401309105018091AA00BE
:1012C0009091AB002817390780F01092AF00109270
:1012D000AE001092B9001092B8001092BF001092A8
:1012E000BE004D7F4093A2001DC0209104013091AB
:1012F00005018091C2009091C3002817390790F032
:101300008091AE009091AF00969587959093AF0035
:101310008093AE00469730F486E190E09093AF0062
:101320008093AE004091A20040FF38C02091F600AB
:101330003091F7008091CC009091CD0028173907AB
:1013400080F01092AD001092AC001092F400109258
:10135000F3001092CF001092CE004E7F4093A20077
:101360001DC02091F6003091F7008091F800909117
:10137000F9002817390790F08091AC009091AD00EA
:10138000969587959093AD008093AC00469730F486
:1013900086E190E09093AD008093AC004091820094
:1013A00080918400481739F49091830080918500E2
:1013B000981709F455C02091AE003091AF00211567
:1013C000310531F48091AC009091AD00892B21F171
:1013D0003093B1002093B0008091AC009091AD00AB
:1013E0009093C5008093C4001092AF001092AE009D
:1013F0001092AD001092AC001092CF001092CE006F
:101400001092BF001092BE001092B9001092B80066
:101410001092F4001092F3008FB5882309F5842F01
:10142000609183000E94C4038091B0009091B1004C
:101430009093AF008093AE002091C4003091C5001E
:101440003093AD002093AC00969587959093B900AA
:101450008093B800369527953093F4002093F300DD
:101460004091AE005091AF008091C0009091C100BA
:101470009A01281B390BC9012091B8003091B9009D
:10148000820F931F9093B9008093B800855A9140C2
:1014900034F084EA91E09093B9008093B800809191
:1014A000B8009091B9008C559E4F34F48CE59EEFB6
:1014B0009093B9008093B8008091C0009091C100D2
:1014C000892B31F4452B21F41092B9001092B80009
:1014D0008091B8009091B90062E070E00E94E60D42
:1014E0007093BF006093BE00633D710534F082EDE0
:1014F00090E09093BF008093BE008091BE009091D9
:10150000BF0097FF04C01092BF001092BE00409130
:10151000AC005091AD0080910201909103019A01BD
:10152000281B390BC9012091F3003091F400820F80
:10153000931F9093F4008093F300855A914034F008
:1015400084EA91E09093F4008093F3008091F3009B
:101550009091F4008C559E4F34F48CE59EEF90935F
:10156000F4008093F3008091020190910301892B94
:1015700031F4452B21F41092F4001092F300809185
:10158000F3009091F40062E070E00E94E60D709329
:10159000CF006093CE00633D710534F082ED90E0A2
:1015A0009093CF008093CE008091CE009091CF0099
:1015B00097FF08C01092CF001092CE0003C0815058
:1015C0008093E7001092BC009091A20080910801E6
:1015D000891739F090930801E0917E00F0917F0027
:1015E000099508950E94A6020E948D040E9471022E
:1015F0000E94BF080895FF920F931F93CF93DF932C
:10160000182F062FF22E8091A20083608093A200F3
:1016100060E070E0CB01BA0120EB32E040E050E046
:101620000E94B30D24E630E040E050E00E94F90D46
:10163000E901C901845690409093F9008093F80025
:101640009093C3008093C2003093CD002093CC00D0
:101650003093AB002093AA0028323105B0F484E126
:1016600090E09093CD008093CC009093AB0080935A
:10167000AA008AE090E09093F9008093F80090939C
:10168000C3008093C200C8E2D0E0193C18F018EC07
:1016900088EC01C0812F8093AE001092AF001093B0
:1016A000AC001092AD00802F0E94540310920501EF
:1016B000109204011092F7001092F600D093D5001A
:1016C000C093D400D093B600C093B5008091A2001F
:1016D00080930801E0917E00F0917F000995FF2042
:1016E00019F406C00E94F20A8091A2008370D1F71B
:1016F000DF91CF911F910F91FF9008951F93CF938A
:10170000DF93382FEA01122F8091A200836080932B
:10171000A2001092F9001092F8001092C3001092EB
:10172000C200373180F086EF9FEF831B9109880F4D
:10173000991F840F951F9093F9008093F800909360
:10174000C3008093C200CE0102979093CD00809396
:10175000CC009093AB008093AA00C832D105B8F4B6
:1017600084E190E09093CD008093CC009093AB0007
:101770008093AA008AE090E09093F9008093F800AB
:101780009093C3008093C200C8E2D0E004C021E07F
:10179000C039D20798F4393288F0CE0196958795F2
:1017A000969587959E01281B390B3093F90020935D
:1017B000F8003093C3002093C20038E21092050174
:1017C000109204011092F7001092F600393C18F0C4
:1017D00038EC88EC01C0832F8093AE001092AF00EC
:1017E0003093AC001092AD00862F0E945403D0932A
:1017F000D500C093D400D093B600C093B5008091BB
:10180000A20080930801E0917E00F0917F0009958D
:10181000112319F406C00E94F20A8091A20083707D
:10182000D1F7DF91CF911F910895F89482B98FEF8E
:1018300083B984E086BF789485EC86BF08951F92B3
:101840000F920FB60F9211248F939F93EF93FF93F4
:1018500081B1803909F458C0813948F4803709F4DE
:101860004FC08038A1F1803609F05BC02BC0883AA8
:1018700061F0893A20F4803A09F053C04AC0883BAD
:1018800051F0803C09F04DC013C084E08093980073
:1018900081E080939600809198008430C1F580911A
:1018A0009900E82FF0E0EF5DFE4F908193B924C0DE
:1018B00010929800109299001092960081E0809307
:1018C000940025C081E08093970082E01AC0809147
:1018D0009800823039F483B1809399008093950009
:1018E00083E00FC0833099F480919900E82FF0E0F5
:1018F00093B1EF5EFE4F90838F5F8093990007C096
:1019000081E08093980003C083B18093100185EC3F
:1019100009C085E08093980085EC86BF10929700FF
:1019200002C084E886BFFF91EF919F918F910F9045
:101930000FBE0F901F9018955D9BFECF8CB9089538
:10194000FC0104C05D9BFECF31968CB98081882359
:10195000C9F7089503C05D9BFECF2CB9FC01019629
:1019600024912223C1F70895FC01E40FF11D05C065
:101970005D9BFECF31968CB961508081882311F038
:101980006623B1F708951F920F920FB60F9211249C
:101990002F938F939F93EF93FF9320919D008091BE
:1019A0009C00922F981B9032A8F480919B00E82F06
:1019B000F0E09CB1EE5AFE4F90838F5F80939B00C6
:1019C0002F5F20939D00813210F010929B001092A7
:1019D000510106C08CB180939F0081E0809351013A
:1019E000FF91EF919F918F912F910F900FBE0F90CC
:1019F0001F9018951092510190919C0080919D002C
:101A0000891711F4E0E013C09F5F90939C008091D0
:101A10009A00813210F010929A0080919A00E82F7B
:101A2000F0E0EE5AFE4FE0818F5F80939A008E2F98
:101A3000089510925101DC0120E014C09F5F909343
:101A40009C0080919A00E82FF0E0EE5AFE4F9081C2
:101A50009C938F5F80939A00813210F010929A00CD
:101A60002F5F119690919C0080919D00891711F035
:101A7000261720F3822F089580919D0090919C005D
:101A8000891B089557988CB180939E0010929A00FC
:101A900010929B0010929C0010929D001092510198
:101AA000579A08950F931F93DF93CF93CDB7DEB767
:101AB00061970FB6F894DEBF0FBECDBF462F8E01E3
:101AC0000F5F1F4FB80150E00E941B0EC8010E941B
:101AD000A00C61960FB6F894DEBF0FBECDBFCF91BC
:101AE000DF911F910F910895FF920F931F93DF9342
:101AF000CF93CDB7DEB761970FB6F894DEBF0FBEB8
:101B0000CDBF262FF42E8E010F5F1F4FB801422F3D
:101B100050E00E941B0EF80101900020E9F7319778
:101B2000E01BF10B4F2D4E1B141664F480E3415063
:101B30005D9BFECF8CB94423D1F7CE0101960E9464
:101B4000A00C05C04195C8016F2D0E94B40C619690
:101B50000FB6F894DEBF0FBECDBFCF91DF911F91BE
:101B60000F91FF900895629FD001739FF001829FB3
:101B7000E00DF11D649FE00DF11D929FF00D839F1C
:101B8000F00D749FF00D659FF00D9927729FB00DB9
:101B9000E11DF91F639FB00DE11DF91FBD01CF01CC
:101BA00011240895AA1BBB1B51E107C0AA1FBB1F2C
:101BB000A617B70710F0A61BB70B881F991F5A95D9
:101BC000A9F780959095BC01CD01089597FB092E4A
:101BD00007260AD077FD04D0E5DF06D000201AF4EE
:101BE000709561957F4F0895F6F7909581959F4F79
:101BF0000895A1E21A2EAA1BBB1BFD010DC0AA1F4E
:101C0000BB1FEE1FFF1FA217B307E407F50720F065
:101C1000A21BB30BE40BF50B661F771F881F991FE0
:101C20001A9469F760957095809590959B01AC0129
:101C3000BD01CF010895FB019F01E8944230C4F03B
:101C40004532B4F44A3029F497FB1EF490958195FF
:101C50009F4F642F77270E94D20D805D8A330CF04E
:101C6000895D8193CB010097A1F716F45DE2519352
:101C70001082C9010C943C0EDC01FC01672F7191AC
:101C80007723E1F7329704C07C916D937083629162
:0C1C9000AE17BF07C8F30895F894FFCF0B
:101C9C0052656B757273696F6E736175667275667A
:101CAC00204E722E3A20000A0001810487043F0363
:021CBC006B02B9
:00000001FF
